{
  "contractName": "Donation",
  "abi": [
    {
      "constant": true,
      "inputs": [],
      "name": "donatur",
      "outputs": [
        {
          "name": "",
          "type": "address"
        }
      ],
      "payable": false,
      "stateMutability": "view",
      "type": "function"
    },
    {
      "constant": true,
      "inputs": [],
      "name": "money",
      "outputs": [
        {
          "name": "",
          "type": "uint256"
        }
      ],
      "payable": false,
      "stateMutability": "view",
      "type": "function"
    },
    {
      "constant": true,
      "inputs": [],
      "name": "useless_variable",
      "outputs": [
        {
          "name": "",
          "type": "string"
        }
      ],
      "payable": false,
      "stateMutability": "view",
      "type": "function"
    },
    {
      "inputs": [],
      "payable": false,
      "stateMutability": "nonpayable",
      "type": "constructor"
    },
    {
      "constant": false,
      "inputs": [
        {
          "name": "param",
          "type": "string"
        }
      ],
      "name": "change_useless_variable",
      "outputs": [],
      "payable": false,
      "stateMutability": "nonpayable",
      "type": "function"
    },
    {
      "constant": false,
      "inputs": [],
      "name": "donate",
      "outputs": [],
      "payable": true,
      "stateMutability": "payable",
      "type": "function"
    },
    {
      "constant": false,
      "inputs": [],
      "name": "receive_donation",
      "outputs": [],
      "payable": false,
      "stateMutability": "nonpayable",
      "type": "function"
    }
  ],
  "bytecode": "0x608060405234801561001057600080fd5b5033600160006101000a81548173ffffffffffffffffffffffffffffffffffffffff021916908373ffffffffffffffffffffffffffffffffffffffff1602179055506040805190810160405280600f81526020017f446f6e6174696f6e20737472696e6700000000000000000000000000000000008152506003908051906020019061009d9291906100a3565b50610148565b828054600181600116156101000203166002900490600052602060002090601f016020900481019282601f106100e457805160ff1916838001178555610112565b82800160010185558215610112579182015b828111156101115782518255916020019190600101906100f6565b5b50905061011f9190610123565b5090565b61014591905b80821115610141576000816000905550600101610129565b5090565b90565b6104f7806101576000396000f3fe608060405260043610610078576000357c0100000000000000000000000000000000000000000000000000000000900463ffffffff168063173b30101461007d5780634ddd108a146100d4578063620205c5146100ff5780638bed928a146101c75780639afa0625146101de578063ed88c68e1461026e575b600080fd5b34801561008957600080fd5b50610092610278565b604051808273ffffffffffffffffffffffffffffffffffffffff1673ffffffffffffffffffffffffffffffffffffffff16815260200191505060405180910390f35b3480156100e057600080fd5b506100e961029d565b6040518082815260200191505060405180910390f35b34801561010b57600080fd5b506101c56004803603602081101561012257600080fd5b810190808035906020019064010000000081111561013f57600080fd5b82018360208201111561015157600080fd5b8035906020019184600183028401116401000000008311171561017357600080fd5b91908080601f016020809104026020016040519081016040528093929190818152602001838380828437600081840152601f19601f8201169050808301925050505050505091929192905050506102a3565b005b3480156101d357600080fd5b506101dc6102bd565b005b3480156101ea57600080fd5b506101f361033f565b6040518080602001828103825283818151815260200191508051906020019080838360005b83811015610233578082015181840152602081019050610218565b50505050905090810190601f1680156102605780820380516001836020036101000a031916815260200191505b509250505060405180910390f35b6102766103dd565b005b6000809054906101000a900473ffffffffffffffffffffffffffffffffffffffff1681565b60025481565b80600390805190602001906102b9929190610426565b5050565b600160009054906101000a900473ffffffffffffffffffffffffffffffffffffffff1673ffffffffffffffffffffffffffffffffffffffff166108fc3073ffffffffffffffffffffffffffffffffffffffff16319081150290604051600060405180830381858888f1935050505015801561033c573d6000803e3d6000fd5b50565b60038054600181600116156101000203166002900480601f0160208091040260200160405190810160405280929190818152602001828054600181600116156101000203166002900480156103d55780601f106103aa576101008083540402835291602001916103d5565b820191906000526020600020905b8154815290600101906020018083116103b857829003601f168201915b505050505081565b336000806101000a81548173ffffffffffffffffffffffffffffffffffffffff021916908373ffffffffffffffffffffffffffffffffffffffff16021790555034600281905550565b828054600181600116156101000203166002900490600052602060002090601f016020900481019282601f1061046757805160ff1916838001178555610495565b82800160010185558215610495579182015b82811115610494578251825591602001919060010190610479565b5b5090506104a291906104a6565b5090565b6104c891905b808211156104c45760008160009055506001016104ac565b5090565b9056fea165627a7a723058207a90d9bd16fafa662e94ca79f8dd25de752d0405da4542461d72b30f4743864a0029",
  "source": "pragma solidity ^0.5.0;\n\ncontract Donation {\n  address public donatur;\n  address payable donatee;\n  uint public money;\n  string public useless_variable;\n\n  constructor() public {\n    donatee = msg.sender;\n    useless_variable = \"Donation string\";\n  }\n\n  function change_useless_variable(string memory param) public {\n    useless_variable = param;\n  }\n\n  function donate() public payable {\n    donatur = msg.sender;\n    money = msg.value;\n  }\n\n  function receive_donation() public {\n    donatee.transfer(address(this).balance);\n  }\n}",
  "sourcePath": "/home/nuru/Desktop/Blockchain/Smart-Contracts/contracts/donation.sol",
  "compiler": {
    "name": "solc",
    "version": "0.5.0+commit.1d4f565a.Emscripten.clang"
  },
  "schemaVersion": "3.4.9",
  "updatedAt": "2022-08-12T12:02:09.656Z",
  "devdoc": {
    "methods": {}
  },
  "userdoc": {
    "methods": {}
  }
}